:10001E001404051102031402051904011904011632
:10002E0004061904011404051404051404050D0234
:10003E00010F02021104030F02020D02010F04024E
:10004E000F0402000400000400140405110203143E
:10005E0002051906011802071604061904011404F4
:10006E00051404051404050F0202110203120604FE
:10007E000C02070D04010D0401000400000400161B
:10008E0004061904011904011904011804071602C3
:10009E0006180207190401190401160206180207B0
:1000AE001902011602061602061402051102030DAC
:1000BE0002010F04020F04020004000004001404E5
:1000CE00051102031402051906011802071604068B
:1000DE001904011404051404051404050F02021179
:1000EE0002031206040C02070D04010D04010D0497
:1000FE0001000000FF0000000000000000000000F2
:10010E0000000000000000000000000000000000E1
:10011E0000000000000000000000000000000000D1
:10012E0000000000000000000000000000000000C1
:10013E0000000000000000000000000000000000B1
:10014E0000000000000000000000000000000000A1
:10015E000000000000000000000000000000000091
:10016E000000000000000000000000000000000081
:10017E000000000000000000000000000400000469
:10018E0000000400160206180207190601180207DD
:10019E001904011D0403180C0711020311020316A2
:1001AE000606140205160406190401140C051104A2
:1001BE0003120604110203120404190401110803A8
:1001CE000002001902011902011902011806071393
:1001DE00020413040418040718080700040016028A
:1001EE00061802071906011802071904011D040357
:1001FE00180C071102031102021606061402051648
:10020E000406190401140C050F0202110203120454
:10021E00041902011804071906011B02021B02022F
:10022E001D0203190A011902011802071602061609
:10023E000206180407150405160C061902011B0206
:10024E00021D06031B02021D04032004051B0C02E3
:10025E001402051402051906011802071904011DDE
:10026E0004031D10031602061802071904011804D0
:10027E00071B02021B0202190601140A051E0404C2
:10028E001D04031D04031904011D0C031D04032288
:10029E0008062004052004051D02031B020219088E
:1002AE00010002001902011B04021902011B0202C5
:1002BE001B04022004051D0C031D04032208062046
:1002CE0008051D02031B0202190801000200190293
:1002DE00011B04021902011B0602180407160C0664
:0602EE00000400FF000007
:10075500204A2B0000F88CF8F3F95BF9B8FA15FA82
:1007650067FAB9FB04FB4BFB90FBCFFC10FC44FC88
:1007750079FCACFCDCFD09FD34FD5CFD82FDA6FDCC
:10078500C8FDE8FE06FE22FE3DFE56FE6EFE85FE17
:100795009AFEAEFEC1FED3FEE4FEF4FF0301270080
:1007A50001240002250001012100022801900222F6
:0407B5000001C1007E
:1004FB001208C01208D41208E81208EFC28CC28E80
:10050B002000030205A675F06BE521A4241EF582DD
:10051B00E5F03400F5832521F58375F003E527120B
:10052B000626E493FFF460D88F2A75F06BE521A4BF
:10053B00241FF582E5F03400F5832521F58375F052
:10054B0003E527120626E493FD7C00E529AE287807
:10055B0002CEC313CE13D8F9FF1205BF1208AB0599
:10056B0027C28C7F0A7E001208ABD28C75F06BE52C
:10057B0021A4241EF582E5F03400F5832521F583B3
:10058B0075F003E527120626E493F4600302050BCE
:10059B00C28CC28EF527C20002050B1202F4EF4E7D
:1005AB00700302050B7FF47E011208ABC28CE4F5DD
:0405BB002A02050B00
:03000300020829C7
:10082900C0E0C0F0C083C082C0D075D000C000C095
:1008390001C002C003C004C005C006C00720B2132E
:100849007F0A7E001208AB20B209B200A200928E84
:1008590030B2FDD007D006D005D004D003D002D0E5
:0E08690001D000D0D0D082D083D0F0D0E032C9
:030013000206E4FE
:1006E400C0E0C0F0C083C082C0D075D000C000C0DC
:1006F40001C002C003C004C005C006C00720B33651
:100704007F0A7E001208AB20B32C0523E523700278
:100714000522AE28AF29AC22FD1205D18E288F29DF
:10072400E52364034522700BF52275230175280126
:1007340075299030B3FDD007D006D005D004D0037E
:10074400D002D001D000D0D0D082D083D0F0D0E07D
:010754003272
:03000B0002087771
:10087700C0E0C0D075D000C000C006E52A25E0243E
:100887002BF8E6FE08E64E6012E52A25E0242BF851
:10089700E6FE08E6F58AEEF58CB295D006D000D0D4
:0408A700D0D0E0329B
:03001B0002042AB2
:10042A00C0E0C0F0C083C082C0D075D000C000C098
:10043A0001C002C003C004C005C006C00775800021
:10044A00C28E758B66758DFC75F06BE521A4241E32
:10045A00F582E5F03400F5832521F58375F003E58F
:10046A0027120626E493F4606BE524D39479502688
:10047A0075F06BE521A42420F582E5F03400F583BC
:10048A002521F58375F003E524120626E493FD7C05
:10049A0000AF261207C60526E526700205250524A3
:1004AA00E5272401FFE433FED3E5249FEE6480F8B8
:1004BA007480984003758000E52664094525701408
:1004CA00F52575260174F82524F524E527540770C7
:1004DA0003852724D28ED007D006D005D004D003B6
:1004EA00D002D001D000D0D0D082D083D0F0D0E0DA
:0104FA0032CF
:1002F4007590FFE527700AE512FD7C007F01120767
:10030400C67590F0E59054F064F070030204227F07
:100314000A7E001208ABE59054F0FF64F07003020B
:10032400042275900FE590540F4207E590640F6026
:100334000575900F80F5EF120632035D77036B7B32
:10034400037A7D03897E0398B703A6BB03B4BD0378
:10035400C2BE03ECD70000041ED28CE51275F00C6B
:10036400A404F52A020422D28CE51275F00CA4240C
:1003740003F52A020422D28CE51275F00CA424059C
:10038400F52A020422D28CE51275F00CA42406F599
:100394002A020422D28CE51275F00CA42408F52A52
:1003A400807CD28CE51275F00CA4240AF52A806EA8
:1003B400D28CE51275F00CA4240CF52A8060051289
:1003C400E512D394024003E4F512C28EE4F580E50D
:1003D40012FD7C007F011207C67FF47E011208AB78
:1003E400E5276031D28E802DE52170047F018002E3
:1003F4007F008F21E4F527C28EF580E5212401FDDD
:10040400E433FC7F021207C67FF47E011208ABE5D9
:10041400276002D28EE4F52A8004E4FEFF22759060
:05042400FFAF2A7E007D
:0104290022B0
:0C07B9000A083F065B4F666D7D077F6FEE
:1007C600EF14B4080050549007DB75F003A4C583FA
:1007D60025F0C583730207F30207F70207FB02073A
:1007E600FF02080302080B02081302081BD2A480AA
:1007F6000ED2A48012D2A48016D2A4801AC2A4D289
:10080600A3D2A28016C2A4D2A3C2A2800EC2A4C240
:10081600A3D2A28006C2A4C2A3C2A274082DF8E67F
:03082600F5802238
:1008AB00EF1FAC0670011E4C600A7D027CEFDCFE74
:0408BB00DDFC80ECF4
:0108BF002216
:1008C000438901758A18758CFCC28DD28CD2A9D24D
:0408D000AFD2B922C8
:1008D400438910758A18758CFCC28FD28ED2ABD224
:0408E400AFC2BB22C2
:0708E800D2AFD2A8D2882292
:0708EF00D2AFD2AAD28A2287
:030000000206589D
:0C065800787FE4F6D8FD75817402069FDF
:1005BF00EF8DF0A4A8F0CF8CF0A428CE8DF0A42E50
:0205CF00FE220A
:1005D100BC000BBE0029EF8DF084FFADF022E4CC0E
:1005E100F875F008EF2FFFEE33FEEC33FCEE9DECD7
:1005F100984005FCEE9DFE0FD5F0E9E4CEFD22ED1D
:10060100F8F5F0EE8420D21CFEADF075F008EF2F66
:10061100FFED33FD4007985006D5F0F222C398FD57
:050621000FD5F0EA22F4
:0C062600A42582F582E5F03583F58322DF
:10063200D083D082F8E4937012740193700DA3A357
:1006420093F8740193F5828883E47374029368606B
:06065200EFA3A3A380DF6B
:100664000204FBE493A3F8E493A34003F68001F2AD
:1006740008DFF48029E493A3F85407240CC8C33397
:10068400C4540F4420C8834004F456800146F6DF66
:10069400E4800B0102040810204080900755E47E9A
:1006A400019360BCA3FF543F30E509541FFEE4935B
:1006B400A360010ECF54C025E060A840B8E493A322
:1006C400FAE493A3F8E493A3C8C582C8CAC583CA4D
:1006D400F0A3C8C582C8CAC583CADFE9DEE780BE05
:0107C5000033
:00000001FF
